:03000000020A24CD
:0C0A2400787FE4F6D8FD758164020A6B4F
:100C1C00543A00503A0053503A0044503A002020C5
:100C2C002000000000000000000000000000000098
:0C0C3C00000000000000000000000000AC
:100D0900010B00010C00010D00010E00010800019A
:050D19000900010A00C1
:1005DF00E4F521F522F523F524F525F52678277C7A
:1005EF0000FD7BFF7A0C792EFE7F0C1204C4E4F51C
:1005FF0033F537F536F535F534F538F539F53AF590
:10060F003BF53CF53DF53EF53FF540F541F542F53F
:10061F0043F544F545F54678477C00FD7BFF7A0CA2
:10062F00793AFE7F051204C4784C7C007D007BFF75
:10063F007A0C793F7E007F051204C478517C007DCF
:10064F00007BFF7A0C79447E007F041204C4E4F52A
:10065F0055F556755709120D75120D4B120DAB123C
:10066F000D60120D35120DB27F0A7E00120CD87B71
:10067F00FF7A0C791CE4FDFF120C977BFF7A0C7943
:10068F001FE4FD7F0A120C977BFF7A0C79227D0104
:10069F007F08120C977BFF7A0C79267D01E4FF12FD
:1006AF000C97E50B70030207D0E4F50BFB7A00798A
:1006BF0021120BB692002000030207CDAE21E522D6
:1006CF007804CEA2E713CE13D8F8F5248E23752520
:1006DF0000E522540FF5267B007A007927AF24120C
:1006EF00097F8F33053374272FF8762EAE25AF266B
:1006FF007C007D0A120515AC06AD07EC12033AE437
:10070F00FBFA7920783F1201161203738E258F267C
:10071F007C007D0A120527AC06AD07EF2430FFAE33
:10072F0033053374272EF8A607EC12033A7BCD7AE4
:10073F00CC79CC783D120116C004C005C006C007A5
:10074F00AC23AD24EC12033AD003D002D001D00079
:10075F001200258F378E368D358C34C3E5339406D2
:10076F0074809480500CAF33053374272FF87620A4
:10077F0080E974272533F8E4F6FB7A007927FD7FAB
:10078F0002120C977F0F7E00120CD87FCD7ECC7D8E
:10079F00147C42AB37AA36A935A8341202BC6002CA
:1007AF005014E4FFFE7D127C42AB37AA36A935A860
:1007BF00341202BC50057555018003E4F555120D36
:1007CF0035E4FF120AB08F3D7F01120AB08F3CACA7
:1007DF003DE412033FE4FBFA79FA7843120116E481
:1007EF00FBFA797F784312021F1203738E458F46EF
:1007FF00AC3CE412033FE4FBFA79FA78431201169A
:10080F00E4FBFA797F784312021F1203738E438F32
:10081F0044E5462542F542E5453541F541E5442598
:10082F0040F540E543353FF53F053EC3E53E9408AF
:10083F00748094805003020900AE41E5427803CEE4
:10084F00A2E713CE13D8F8F53B8E3AAE3FE54078CA
:10085F0003CEA2E713CE13D8F8F5398E38E4F5415D
:10086F00F542F53FF540F53EFB7A00794CAF3BAED4
:10087F003A12097F7B007A007947AF39AE381209F7
:10088F007F7BFF7A0C792A7D017F04120C977BFF07
:10089F007A0C792A7D017F0B120C977B007A0079F5
:1008AF004C7D017F04120C977B007A0079477D0104
:1008BF007F0B120C97D3E53B945AE53A64809480F2
:1008CF005027C3E53B943CE53A64809480401AD3AB
:1008DF00E539948CE53864809480500DC3E53994E4
:1008EF005AE5386480948050057555018003E4F50E
:1008FF0055E50C6046E4F50CAF0DFEFB7A0079511F
:10090F0012097F7BFF7A0C792AE4FD7F0D120C9779
:10091F007B007A007951E4FD7F0D120C97AF0DD358
:10092F00EF946474809480500AC3EF943C74809465
:10093F008050057555018003E4F5550556E557754B
:10094F00F00AA4FFD3E5569FE5F06480F874809811
:10095F004005E55704F556E5568557F084E5F060F8
:10096F00030206B1E55570030206B1B2A00206B14B
:100D4B005389F0438901758AF6758CFFC28DD2A940
:050D5B00D2AFD28C2292
:100D600053890F438910758BF0758DD8C28FD2AB24
:050D7000D2AFD28E227B
:070DAB00D288D2A8D2AF22CA
:03000300020006F2
:03000600050E32B2
:03000B00020C7173
:040C7100C0E0C0D04F
:100C7500C28C758AF6758CFF0508C3E50894647403
:0D0C85008094804006750800750B01D28C2C
:050C9200D0D0D0E032DB
:03001B00020B7164
:060B7100C0E0C0F0C0D09E
:100B7700C28E758BF0758DD80509C3E50994647429
:100B87008094804005750900050AC3E50A94057439
:100B97008094804011750A00E50E75F00CA4F50DE0
:080BA700750E00750C01D28EE1
:070BAF00D0D0D0F0D0E032FD
:100CB9007580FFC292D293D294AF80C294055BE54E
:0E0CC9005BD39432748094805004EF20E7E9EE
:010CD70022FA
:100D9B00AE07120CB9C292C2938E80D294C2942227
:060D1F0014F91204EAFFC2
:100D2500AE07120CB9D292C2938E80D294C294228D
:100D75007F38120D9B7F0C120D9B7F06120D9B7FFA
:040D850001020D9BBF
:100D8900AE07ED6005EE24C08001EE4480FF120D30
:020D99009B229B
:100C97008B588A59895A120D89AB58AA59A95A12E1
:100CA70004EA600D055AE55A70020559120D1F80B6
:020CB700E82231
:060B23008F0F8D108B11F5
:100B2900E4FDEDC39408748094805030E5112440AD
:100B3900FFE433FEED2403FCEFA804088006CEA2EF
:100B4900E713CE13D8F8FF120D9BAB120514E51469
:100B5900AA1370020513120D1F0D80C6AD10AF0F39
:080B6900120D89AF11020D25E8
:0A097F008E588F598B5A8A5B895CF1
:10098900E4F55DF55EC3E55864809480501CC3E4CA
:100999009559F559E49558F558055CE55C700205DB
:1009A9005B14F9742D120503055EAE58AF597C002E
:1009B9007D0A120527ED2430FFAE5D055D745F2EBB
:1009C900F8A607AE58AF597C007D0A1205278E5844
:1009D9008F59D3E5599400E5586480948050CBE54C
:1009E9005D255EF55EAF5D155DD3EF94007480946F
:1009F90080401B745F255DF8E6FFAB5A055CE55C3A
:100A0900AA5B7002055B14F9EF12050380D7AB5A94
:0A0A1900AA5BA95CE4120503AF5EBE
:010A230022B0
:100D3500120CF1920120010A7FCC120C487F44125B
:050D45000C48A201B3FF
:010D4A002286
:060BB6008B588A59895A90
:100BBC00120CF192012001277FCC120C487FBE123F
:100BCC000C48120BEF8F5B120BEFEFFE7C00E42551
:100BDC005BFFEC3EAB58AA59A95A8FF012055DA2E7
:020BEC0001B353
:010BEE0022E4
:100CF100C2AFC2B612000ED2B6120DB9A2B692029E
:070D010030B6FDD2AFA202E3
:010D080022C8
:020C48008F5CBF
:100C4A00C2AF755D01E55D601BC2B60000555C7000
:100C5A0004C2B68002D2B6120DB9D2B6E55D25E05D
:060C6A00F55D80E1D2AF50
:010C70002261
:100BEF00C2AF755D01E55D601FC2B60000D2B600F1
:100BFF000020B605F4525C8004E55D425C120DB92D
:0C0C0F00E55D25E0F55D80DDD2AFAF5C57
:010C1B0022B6
:100CD800C3EF9401EE9400500F7D027CEFDCFEDD43
:080CE800FCEF1F70EB1E80E819
:010CF00022E1
:08000E007F027E27DEFEDFFC0D
:0100160022C7
:050DB900007F1BDFFEBE
:010DBE002212
:070DB200D295C296D29722F0
:100AB000E4FEFDC295C296D29700D29600C296D2AD
:100AC0009700D29600C296EF7004C2978002D29728
:100AD00000D29600C296D297E4FFEFC394087480C8
:100AE00094805012D29600C296EE25E0FE30970315
:100AF0004306010F80E4E4FFEFC394087480948000
:100B00005012EDC313FD309703430580D29600C207
:100B1000960F80E4D296D295D297EEB50502FF22C9
:020B20007F0054
:010B220022B0
:10001E000203DFE86480F8E933E83360110460F02E
:10002E00ED33EC337009E8FCE9FDEAFEEBFF220448
:10003E0060DED3EB9FEA9EE99DE8C2E78CF0C2F743
:10004E0095F0400CE8CCF8E9CDF9EACEFAEBCFFB0F
:10005E001203AA85D0F05804700320D5B3E80470BB
:10006E00075002B2D50203E992D5EC0460F7E4CC56
:10007E00C0E0C398F8603B94186008400DD0E0FBD8
:10008E000203C1E4FBFAC9FC8028E830E406E4C9A7
:10009E00FBE4CAFCE830E305E4C9CACBFCE854072C
:1000AE006010F8C3E913F9EA13FAEB13FBEC13FC37
:1000BE00D8F130F52FC3E49CFCEF9BFFEE9AFEEDDA
:1000CE0099FDD0E0FBEF4E4D4C701222DB03020384
:1000DE00E6EC2CFCEF33FFEE33FEED33FDED30E7B7
:1000EE00EB0203C1EF2BFFEE3AFEED39FDD0E0FB44
:1000FE0050130BBB00030203E9ED13FDEE13FEEFED
:08010E0013FFEC13FC0203C116
:10011600EC4D6011E8497017ED33EC3304600DE4E3
:10012600FCFFFEFD22E933E8330470F80203DF1218
:1001360003AA58046009E4CC248150062850090219
:1001460003E92840030203E6C0E0EB4A7044B980A5
:1001560006D0E0FB0203D5EF4E701CBD8008EBFF16
:10016600EAFEE9FD80EBE98DF0A4FEE5F00201FF71
:10017600E9CDF9EAFEEBFFEF89F0A4FCE5F0CE89C4
:10018600F0A42EFFE435F0CD89F0A42DFEE435F081
:100196008067EF4E7005BD80D780C3EF8BF0A4ACAF
:1001A600F0EE8BF0A42CFCE435F0F8EF8AF0A42CEA
:1001B600E5F038FCE433CB8DF0A42CFCE5F03BF8FD
:1001C600EE8AF0A42CFCE5F038F8E433CF89F0A4ED
:1001D6002CFCE5F038CF3400CE89F0A42FFFE5F0F3
:1001E6003EFEE433C98DF0A42EFEE5F039CD8AF04B
:1001F600A42FFFE5F03EFEE43DFD33D0E0FB5007C3
:100206000BBB000F0203E9EC2CFCEF33FFEE33FED1
:06021600ED33FD0203C1FF
:10021C000203E9EC5D046005E8590470030203DF96
:10022C001203AA580460F6EC4860F2EC7004FDFE70
:10023C00FF22C860DB2481C85009C39860025006B5
:10024C000203E69850CAF582E9294B4A7005AB8245
:10025C000203D575F0007C1A7880C3EF9BEE9AED03
:10026C0099400DC3EF9BFFEE9AFEED99FDE842F02D
:10027C00DC23ACF0D0E0FFD0E0FED0E0FDAB822080
:10028C00E7101BEB60BAEC2CFCEF33FFEE33FEED0A
:10029C0033FD0203C1E803F830E705C0F075F00048
:1002AC00EF2FFFEE33FEED33FD40B830E7C280AAEE
:1002BC0074F8CC6480CCC86480C8F58204604FC3E9
:1002CC00EB9FF5F0EA9E42F0E99D42F0E89C45F088
:1002DC00603C501DE5825FFFE582D313CB5BCBF412
:1002EC002B5582FB50280ABA002409B9002008803B
:1002FC001DE5825BFBE582D313CF5FCFF4C3132FD5
:10030C005582FF50090EBE00050DBD00010CC3EB5C
:10031C009FF5F0EA9E42F0E99D42F0E89C45F060C2
:09032C0007CC4820E701B3EC22E4
:1003350075F020800E75F010800575F0087D007E43
:10034500007F003392D530D50312057CEC33401085
:10035500EF33FFEE33FEED33FDEC33FCD5F0ED224C
:0E036500E5F0247EA2D513CC92E7CDCEFF2288
:10037300EDD2E7CD33EC3392D524814006E4FFFE82
:10038300FDFC22FCE4CFCECDCC24E0501174FF80E1
:10039300EDC3CC13CCCD13CDCE13CECF13CF04707E
:0703A300F030D5DE02057CFD
:1003AA00E9D2E7C933E833F892D5EDD2E7CD33EC99
:0703BA0033FC5002B2D52212
:1003C100EC30E7100FBF000C0EBE00080DBD00049D
:1003D1000BEB6014A2D5EB13FCED92E7FD2274FF49
:1003E100FCFDFEFF22E480F8A2D574FF13FC7D80A2
:0303F100E480EFB6
:100A30000205DFE493A3F8E493A34003F68001F2F8
:100A400008DFF48029E493A3F85407240CC8C333C7
:100A5000C4540F4420C8834004F456800146F6DF96
:100A6000E4800B0102040810204080900D09E47E10
:100A7000019360BCA3FF543F30E509541FFEE4938B
:100A8000A360010ECF54C025E060A840B8E493A352
:100A9000FAE493A3F8E493A3C8C582C8CAC583CA7D
:100AA000F0A3C8C582C8CAC583CADFE9DEE780BE35
:010D1E0000D4
:1003F400E709F608DFFA8046E709F208DFFA803EEB
:1004040088828C83E709F0A3DFFA8032E309F608D7
:10041400DFFA8078E309F208DFFA807088828C833F
:10042400E309F0A3DFFA806489828A83E0A3F608F3
:10043400DFFA805889828A83E0A3F208DFFA804CCD
:1004440080D280FA80C680D4806980F280338010A4
:1004540080A680EA809A80A880DA80E280CA80330D
:1004640089828A83ECFAE493A3C8C582C8CCC58385
:10047400CCF0A3C8C582C8CCC583CCDFE9DEE78055
:100484000D89828A83E493A3F608DFF9ECFAA9F0D4
:10049400EDFB2289828A83ECFAE0A3C8C582C8CC2A
:1004A400C583CCF0A3C8C582C8CCC583CCDFEADE43
:1004B400E880DB89828A83E493A3F208DFF980CCA5
:1004C40088F0EF60010E4E60C388F0ED2402B4049E
:1004D4000050B9F582EB2402B4040050AF23234545
:0604E40082239004447322
:1004EA00BB010689828A83E0225002E722BBFE0210
:0904FA00E32289828A83E4932243
:10050300BB010689828A83F0225002F722BBFE01D7
:02051300F322D1
:10051500EF8DF0A4A8F0CF8CF0A428CE8DF0A42EFA
:02052500FE22B4
:10052700C2D5EC30E709B2D5E4C39DFDE49CFCEEEF
:1005370030E715B2D5E4C39FFFE49EFE12058AC3D8
:10054700E49DFDE49CFC800312058A30D507C3E4D3
:060557009FFFE49EFE225E
:10055D00BB010A89828A83F0E5F0A3F0225006F7E9
:0F056D0009A7F01922BBFE06F3E5F009F31922E6
:0E057C00C3E49FFFE49EFEE49DFDE49CFC2290
:10058A00BC000BBE0029EF8DF084FFADF022E4CC55
:10059A00F875F008EF2FFFEE33FEEC33FCEE9DEC1E
:1005AA00984005FCEE9DFE0FD5F0E9E4CEFD22ED64
:1005BA00F8F5F0EE8420D21CFEADF075F008EF2FAE
:1005CA00FFED33FD4007985006D5F0F222C398FD9F
:0505DA000FD5F0EA223C
:00000001FF
